:100000000C9463000C94FB040C94FB040C94FB0410
:100010000C94FB040C94FB040C94FB040C94FB0464
:100020000C94FB040C94FB040C94FB040C94FB0454
:100030000C94FB040C94FB040C94FB040C94FB0444
:100040000C94FB040C94FB040C94FB040C94FB0434
:100050000C94FB040C94FB040C94FB040C94FB0424
:100060000C94FB040C94FB040C94FB040C94FB0414
:100070000C94FB040C94FB040C94FB040C94FB0404
:100080000C94FB040C94FB040C94FB040C94FB04F4
:100090000C94FB040C94FB040C94FB040C94FB04E4
:1000A0000C94FB040C94FB040C94FB040C94FB04D4
:1000B0000C94FB040100010A80010A010E000A04ED
:1000C000010E0110800011241FBECFEFD8E0DEBF6B
:1000D000CDBFE4EBF0E040E017C0B591A5913591BC
:1000E0002591059107FD0CC095918591EF01F92FA0
:1000F000E82F05900D92A217B307D9F7FE0104C0AF
:100100001D92A217B307E1F7E53CF40731F70E940F
:0A011000C9030C94B804F894FFCF63
:10011A00534831313036203A20493243203A20417F
:10012A006464726573732073657420746F20256428
:10013A000A00534831313036203A20493243203AB6
:10014A0020496E697469616C697A656420626163C9
:10015A006B656E64204932430A00534831313036A8
:10016A00203A204672616D65206275666665722066
:10017A00616C6C6F63617465640A00534831313095
:10018A0036203A20446973706C617920696E69740B
:10019A0069616C697A65640A0053483131303620E6
:1001AA003A20446973706C6179207475726E656463
:1001BA00204F4E0A00534831313036203A204469E4
:1001CA0073706C6179207475726E6564204F46464F
:1001DA000A00534831313036203A20436F6E747228
:1001EA006173742073657420746F203A2025750A30
:1001FA0000534831313036203A20446973706C61BB
:10020A0079203D204E6F726D616C0A00534831317E
:10021A003036203A20446973706C6179203D204958
:10022A006E7665727465640A00534831313036203F
:10023A003A20446973706C617920757064617465E1
:10024A00642077697468206672616D6520627566DC
:10025A006665720A00534831313036203A204472BA
:10026A006177706978656C206F7574206F6620728B
:10027A00616E67650A00534831313036203A20539F
:10028A00637265656E207265736574656420616E5C
:10029A006420636C65617265642077697468207391
:1002AA007065636966696564207061747465726EED
:1002BA000A00534831313036203A20447261776C53
:1002CA00696E6520766572746963616C0A005348C9
:1002DA0031313036203A20447261776C696E65207C
:1002EA00686F72697A6F6E74616C0A0053483131B3
:1002FA003036203A2044726177626F7820656D70DB
:10030A0074790A00534831313036203A20447261F8
:10031A0077626F782066696C6C65640A00534831AD
:10032A00313036203A2044726177636972636C65B2
:10033A0020656D7074790A00534831313036203A9D
:10034A002044726177636972636C652066696C6CBC
:10035A0065640A00737472696E67206C656E203D6D
:10036A002025750A0063757272656E742063686170
:10037A0072203D2025630020706F73203D20257573
:10038A002C25750A00534831313036203A205374EF
:10039A0072696E67207772697474656E0A005348D1
:1003AA0031313036203A204269746D61702077729B
:1003BA00697474656E206F662073697A6520257585
:0703CA0020626974730A0050
:1003D20080E094E00E94EE04909303018093020176
:1003E2000E94DF0480910E0190E0880F991F0E9405
:1003F200C30480E090E00E94C3048EEA90E00E9471
:10040200C30482E090E00E94C30480E190E00E9475
:10041200C30480EB90E00E94C30488EC90E00E9449
:10042200C30480E490E00E94C30481E890E00E944B
:10043200C3048FE790E00E94C30481EA90E00E9427
:10044200C30486EA90E00E94C30488EA90E00E9416
:10045200C3048FE390E00E94C30484EA90E00E9408
:10046200C30483ED90E00E94C30480E090E00E9408
:10047200C30485ED90E00E94C30480EF90E00E94E7
:10048200C30489ED90E00E94C30482E290E00E94DE
:10049200C3048AED90E00E94C30482E190E00E94CE
:1004A200C3048BED90E00E94C30480E290E00E94BE
:1004B200C3048DE890E00E94C30484E190E00E94AE
:1004C200C3048FEA90E00E94C3040E94F404809166
:1004D2000F01882351F064E671E080E00E94E70496
:0C04E20065E871E080E00E94E7040895E6
:1004EE00A2E0B0E0EDE7F2E00C9471048C0180E044
:1004FE0090E00115110509F455C0892B79F00230F1
:10050E00110510F402E010E0C8010E9400000097EF
:10051E0009F04FC092E0E92EF12C04C080E0E82EE5
:10052E0080E0F82E80910401909105012091060142
:10053E0030910701821B930B6701C00ED11E8017ED
:10054E009107F0F4DA82C982CE0101960E949203DD
:10055E00009719F480E090E02CC0209104013091B6
:10056E0005018217930721F09093070180930601EE
:10057E0029813A81820F931F909305018093040184
:10058E00E0910601F0910701CF01E114F10419F099
:10059E00029611830083CE0EDF1ED0920701C09209
:1005AE00060107C0009709F0ADCF7C0101E010E015
:0A05BE00B9CF2296E8E00C948D04FA
:1005C800EF92FF920F931F93CF93DF93E12CF12CBF
:1005D80000E010E040C00E94DF0480910E0190E02E
:1005E800880F991F0E94C30480E090E00E94C30412
:1005F80080E190E00E94C30480E090E00E94C30480
:10060800C701806B0E94C3040E94F4040E94DF04A7
:1006180080910E0190E0880F991F0E94C30480E426
:1006280090E00E94C304C0E0D0E00DC0E091020158
:10063800F0910301E00FF11F808190E00E94C30454
:100648000F5F1F4F2196C038D10580F30E94F40434
:100658008FEFE81AF80A88E0E816F10408F4BBCF2F
:1006680080910F01882329F063E372E080E00E9403
:10067800E704DF91CF911F910F91FF90EF900895BC
:10068800882314F0603458F080910F01882309F40E
:1006980044C06FE572E080E00E94E70408954111CC
:1006A8001FC0962F969596959695E82FF0E09F0196
:1006B80040E8949F200D311D1124E0910201F09132
:1006C8000301E20FF31F677081E090E002C0880F1A
:1006D800991F6A95E2F78095908189238083089510
:1006E800962F969596959695E82FF0E09F0140E80D
:1006F800949F200D311D1124E0910201F091030116
:10070800E20FF31F677081E090E002C0880F991F25
:0C0718006A95E2F79081892B8083089598
:10072400FC01408151818091080190910901892B3C
:1007340041F480910C0190910D01909309018093F3
:10074400080180910A0190910B01009719F48DB76B
:100754009EB7809720910801309109012817390725
:1007640048F08CE090E0909301018093000180E0D8
:1007740090E00895821B930B8417950790F3420F22
:0E078400531F5093090140930801C9010895C5
:100792008CE30E949E040E94E9010E942E04C0E0A4
:1007A20018C000E02FE34FE760E080E00E94ED0315
:1007B20044E14C0F01E022E364E18C2F0E94ED033F
:1007C2000E94E4028FE19EE40197F1F700C000006D
:0807D200CF5FCB3630F3E3CF1B
:1007DA00FF920F931F93CF93DF93F82EC62F142FF8
:1007EA00D22F07C0202F4C2F612F8F2D0E940F046C
:1007FA00CF5FDC17B8F780910F01882329F06EE0EC
:10080A0073E080E00E94E704DF91CF911F910F917E
:04081A00FF900895AE
:10081E000F931F93CF93DF93C82FD62F042F122F32
:10082E0006C0412F602F8C2F0E944403CF5FDC1730
:10083E00C0F780910F01882329F068ED72E080E007
:0E084E000E94E704DF91CF911F910F91089552
:10085C000E94DF0480910E0190E0880F991F0E9486
:10086C00C30480E090E00E94C30486EA90E00E94FA
:10087C00C30480910F01882329F06BEF71E080E0B5
:0A088C000E94E7040E94F40408959E
:100896000F931F93CF93DF93869F8001879F100D41
:1008A600969F100D1124C8010E947702EC01009753
:1008B60029F0A80160E070E00E94D604CE01DF9125
:0808C600CF911F910F910895DD
:1008CE002F923F924F925F926F927F928F929F9252
:1008DE00AF92BF92CF92DF92EF92FF920F931F9340
:1008EE00CF93DF93CDB7DEB7CA1BDB0B0FB6F894F1
:0808FE00DEBF0FBECDBF09945F
:100906002A88398848885F846E847D848C849B8499
:10091600AA84B984C884DF80EE80FD800C811B81A7
:10092600AA81B981CE0FD11D0FB6F894DEBF0FBED6
:06093600CDBFED010895A4
:10093C0080930E0190E00E94F80480910F018823AF
:10094C0081F040910E0150E06AE171E080E00E947C
:10095C00E70440910E0150E06CE371E080E00E94EE
:04096C00E7040895FF
:10097000EC010E9400050E94FF04CE010E940105C7
:06098000CE010E94FD04FF
:100986008093BB0084E88093BC008091BC008823E0
:04099600E4F70895E5
:10099A001092B90088E48093B80084E08093BC0088
:0209AA000895AE
:1009AC00FC01480F591FE417F50711F06193FBCFB9
:0209BC0008959C
:1009BE0084EA8093BC008091BC008823E4F70895FC
:0E09CE00CF93DF93CDB7DEB7DF91CF910895C1
:0C09DC00BC0181E090E00E944B040895F3
:0809E80084E98093BC0008952E
:0609F0000E94CD040895F1
:0409F6000C9400005D
:0409FA000E948B00CC
:0209FE0008955A
:020A0000089557
:020A0200089555
:020A04000000F0
:020A06001001DD
:00000001FF
